{
  "_format": "hh-sol-artifact-1",
  "contractName": "Staking",
  "sourceName": "contracts/Staking.sol",
  "abi": [
    {
      "inputs": [
        {
          "internalType": "address",
          "name": "rewardToken",
          "type": "address"
        },
        {
          "internalType": "address",
          "name": "_stToken",
          "type": "address"
        }
      ],
      "stateMutability": "nonpayable",
      "type": "constructor"
    },
    {
      "anonymous": false,
      "inputs": [
        {
          "indexed": true,
          "internalType": "address",
          "name": "user",
          "type": "address"
        },
        {
          "indexed": true,
          "internalType": "address",
          "name": "token",
          "type": "address"
        },
        {
          "indexed": false,
          "internalType": "uint256",
          "name": "amount",
          "type": "uint256"
        }
      ],
      "name": "RewardsClaimed",
      "type": "event"
    },
    {
      "anonymous": false,
      "inputs": [
        {
          "indexed": true,
          "internalType": "address",
          "name": "user",
          "type": "address"
        },
        {
          "indexed": true,
          "internalType": "address",
          "name": "token",
          "type": "address"
        },
        {
          "indexed": false,
          "internalType": "uint256",
          "name": "amount",
          "type": "uint256"
        },
        {
          "indexed": false,
          "internalType": "uint256",
          "name": "durationInSeconds",
          "type": "uint256"
        }
      ],
      "name": "Staked",
      "type": "event"
    },
    {
      "anonymous": false,
      "inputs": [
        {
          "indexed": true,
          "internalType": "address",
          "name": "user",
          "type": "address"
        },
        {
          "indexed": true,
          "internalType": "address",
          "name": "token",
          "type": "address"
        },
        {
          "indexed": false,
          "internalType": "uint256",
          "name": "amount",
          "type": "uint256"
        }
      ],
      "name": "Unstaked",
      "type": "event"
    },
    {
      "inputs": [],
      "name": "APY_12_MONTHS",
      "outputs": [
        {
          "internalType": "uint256",
          "name": "",
          "type": "uint256"
        }
      ],
      "stateMutability": "view",
      "type": "function"
    },
    {
      "inputs": [],
      "name": "APY_3_MONTHS",
      "outputs": [
        {
          "internalType": "uint256",
          "name": "",
          "type": "uint256"
        }
      ],
      "stateMutability": "view",
      "type": "function"
    },
    {
      "inputs": [],
      "name": "APY_6_MONTHS",
      "outputs": [
        {
          "internalType": "uint256",
          "name": "",
          "type": "uint256"
        }
      ],
      "stateMutability": "view",
      "type": "function"
    },
    {
      "inputs": [],
      "name": "SECONDS_IN_MONTH",
      "outputs": [
        {
          "internalType": "uint256",
          "name": "",
          "type": "uint256"
        }
      ],
      "stateMutability": "view",
      "type": "function"
    },
    {
      "inputs": [],
      "name": "SECONDS_IN_YEAR",
      "outputs": [
        {
          "internalType": "uint256",
          "name": "",
          "type": "uint256"
        }
      ],
      "stateMutability": "view",
      "type": "function"
    },
    {
      "inputs": [
        {
          "internalType": "address",
          "name": "token",
          "type": "address"
        }
      ],
      "name": "addSupportedToken",
      "outputs": [],
      "stateMutability": "nonpayable",
      "type": "function"
    },
    {
      "inputs": [
        {
          "internalType": "address",
          "name": "account",
          "type": "address"
        },
        {
          "internalType": "address",
          "name": "token",
          "type": "address"
        }
      ],
      "name": "calculateReward",
      "outputs": [
        {
          "internalType": "uint256",
          "name": "",
          "type": "uint256"
        }
      ],
      "stateMutability": "view",
      "type": "function"
    },
    {
      "inputs": [
        {
          "internalType": "address",
          "name": "token",
          "type": "address"
        }
      ],
      "name": "getReward",
      "outputs": [],
      "stateMutability": "nonpayable",
      "type": "function"
    },
    {
      "inputs": [
        {
          "internalType": "address",
          "name": "user",
          "type": "address"
        },
        {
          "internalType": "address",
          "name": "token",
          "type": "address"
        }
      ],
      "name": "getUserRewards",
      "outputs": [
        {
          "internalType": "uint256",
          "name": "",
          "type": "uint256"
        }
      ],
      "stateMutability": "view",
      "type": "function"
    },
    {
      "inputs": [
        {
          "internalType": "address",
          "name": "user",
          "type": "address"
        },
        {
          "internalType": "address",
          "name": "token",
          "type": "address"
        }
      ],
      "name": "getUserStakedAmount",
      "outputs": [
        {
          "internalType": "uint256",
          "name": "",
          "type": "uint256"
        }
      ],
      "stateMutability": "view",
      "type": "function"
    },
    {
      "inputs": [
        {
          "internalType": "address",
          "name": "user",
          "type": "address"
        },
        {
          "internalType": "address",
          "name": "token",
          "type": "address"
        }
      ],
      "name": "getUserStakingInfo",
      "outputs": [
        {
          "internalType": "uint256",
          "name": "",
          "type": "uint256"
        },
        {
          "internalType": "uint256",
          "name": "",
          "type": "uint256"
        },
        {
          "internalType": "uint256",
          "name": "",
          "type": "uint256"
        }
      ],
      "stateMutability": "view",
      "type": "function"
    },
    {
      "inputs": [
        {
          "internalType": "address",
          "name": "",
          "type": "address"
        }
      ],
      "name": "isSupportedToken",
      "outputs": [
        {
          "internalType": "bool",
          "name": "",
          "type": "bool"
        }
      ],
      "stateMutability": "view",
      "type": "function"
    },
    {
      "inputs": [
        {
          "internalType": "address",
          "name": "",
          "type": "address"
        },
        {
          "internalType": "address",
          "name": "",
          "type": "address"
        }
      ],
      "name": "lastClaimTime",
      "outputs": [
        {
          "internalType": "uint256",
          "name": "",
          "type": "uint256"
        }
      ],
      "stateMutability": "view",
      "type": "function"
    },
    {
      "inputs": [
        {
          "internalType": "address",
          "name": "",
          "type": "address"
        },
        {
          "internalType": "address",
          "name": "",
          "type": "address"
        }
      ],
      "name": "rewards",
      "outputs": [
        {
          "internalType": "uint256",
          "name": "",
          "type": "uint256"
        }
      ],
      "stateMutability": "view",
      "type": "function"
    },
    {
      "inputs": [],
      "name": "s_rewardToken",
      "outputs": [
        {
          "internalType": "contract IERC20",
          "name": "",
          "type": "address"
        }
      ],
      "stateMutability": "view",
      "type": "function"
    },
    {
      "inputs": [],
      "name": "s_stToken",
      "outputs": [
        {
          "internalType": "contract stToken",
          "name": "",
          "type": "address"
        }
      ],
      "stateMutability": "view",
      "type": "function"
    },
    {
      "inputs": [
        {
          "internalType": "address",
          "name": "token",
          "type": "address"
        },
        {
          "internalType": "uint256",
          "name": "amount",
          "type": "uint256"
        },
        {
          "internalType": "uint256",
          "name": "durationInMonths",
          "type": "uint256"
        }
      ],
      "name": "stake",
      "outputs": [],
      "stateMutability": "nonpayable",
      "type": "function"
    },
    {
      "inputs": [
        {
          "internalType": "address",
          "name": "",
          "type": "address"
        },
        {
          "internalType": "address",
          "name": "",
          "type": "address"
        }
      ],
      "name": "stakedBalance",
      "outputs": [
        {
          "internalType": "uint256",
          "name": "",
          "type": "uint256"
        }
      ],
      "stateMutability": "view",
      "type": "function"
    },
    {
      "inputs": [
        {
          "internalType": "address",
          "name": "",
          "type": "address"
        },
        {
          "internalType": "address",
          "name": "",
          "type": "address"
        }
      ],
      "name": "stakingDuration",
      "outputs": [
        {
          "internalType": "uint256",
          "name": "",
          "type": "uint256"
        }
      ],
      "stateMutability": "view",
      "type": "function"
    },
    {
      "inputs": [
        {
          "internalType": "address",
          "name": "",
          "type": "address"
        },
        {
          "internalType": "address",
          "name": "",
          "type": "address"
        }
      ],
      "name": "startTime",
      "outputs": [
        {
          "internalType": "uint256",
          "name": "",
          "type": "uint256"
        }
      ],
      "stateMutability": "view",
      "type": "function"
    },
    {
      "inputs": [
        {
          "internalType": "uint256",
          "name": "",
          "type": "uint256"
        }
      ],
      "name": "supportedTokens",
      "outputs": [
        {
          "internalType": "address",
          "name": "",
          "type": "address"
        }
      ],
      "stateMutability": "view",
      "type": "function"
    },
    {
      "inputs": [
        {
          "internalType": "address",
          "name": "token",
          "type": "address"
        },
        {
          "internalType": "uint256",
          "name": "amount",
          "type": "uint256"
        }
      ],
      "name": "unstake",
      "outputs": [],
      "stateMutability": "nonpayable",
      "type": "function"
    }
  ],
  "bytecode": "0x60806040523480156200001157600080fd5b50604051620025da380380620025da83398181016040528101906200003791906200012a565b816000806101000a81548173ffffffffffffffffffffffffffffffffffffffff021916908373ffffffffffffffffffffffffffffffffffffffff16021790555080600160006101000a81548173ffffffffffffffffffffffffffffffffffffffff021916908373ffffffffffffffffffffffffffffffffffffffff160217905550505062000171565b600080fd5b600073ffffffffffffffffffffffffffffffffffffffff82169050919050565b6000620000f282620000c5565b9050919050565b6200010481620000e5565b81146200011057600080fd5b50565b6000815190506200012481620000f9565b92915050565b60008060408385031215620001445762000143620000c0565b5b6000620001548582860162000113565b9250506020620001678582860162000113565b9150509250929050565b61245980620001816000396000f3fe608060405234801561001057600080fd5b50600436106101425760003560e01c80637ca44fcf116100b8578063c2a672e01161007c578063c2a672e0146103a1578063c6255626146103bd578063cd636b1f146103ed578063d5d9d2411461041d578063e70b9e271461044d578063ef3823fb1461047d57610142565b80637ca44fcf146102c55780638229084b146102f557806391920f3014610325578063bb69086914610355578063c00007b01461038557610142565b806327855b131161010a57806327855b1314610201578063472fa0d41461021f5780634e2381e11461023d5780635dcc93911461026d5780636374cc001461028b5780636d69fcaf146102a957610142565b80630c51b88f14610147578063114e2156146101635780631504a03e146101815780631efc14401461019f578063240028e8146101d1575b600080fd5b610161600480360381019061015c9190611c5f565b61049b565b005b61016b610a62565b6040516101789190611d11565b60405180910390f35b610189610a88565b6040516101969190611d3b565b60405180910390f35b6101b960048036038101906101b49190611d56565b610a8d565b6040516101c893929190611d96565b60405180910390f35b6101eb60048036038101906101e69190611dcd565b610c16565b6040516101f89190611e15565b60405180910390f35b610209610c36565b6040516102169190611d3b565b60405180910390f35b610227610c3d565b6040516102349190611d3b565b60405180910390f35b61025760048036038101906102529190611d56565b610c42565b6040516102649190611d3b565b60405180910390f35b610275610c67565b6040516102829190611d3b565b60405180910390f35b610293610c6f565b6040516102a09190611e51565b60405180910390f35b6102c360048036038101906102be9190611dcd565b610c93565b005b6102df60048036038101906102da9190611d56565b610dde565b6040516102ec9190611d3b565b60405180910390f35b61030f600480360381019061030a9190611d56565b611055565b60405161031c9190611d3b565b60405180910390f35b61033f600480360381019061033a9190611d56565b61107a565b60405161034c9190611d3b565b60405180910390f35b61036f600480360381019061036a9190611d56565b61109f565b60405161037c9190611d3b565b60405180910390f35b61039f600480360381019061039a9190611dcd565b6110c4565b005b6103bb60048036038101906103b69190611e6c565b6113f1565b005b6103d760048036038101906103d29190611eac565b611a3b565b6040516103e49190611ee8565b60405180910390f35b61040760048036038101906104029190611d56565b611a7a565b6040516104149190611d3b565b60405180910390f35b61043760048036038101906104329190611d56565b611b15565b6040516104449190611d3b565b60405180910390f35b61046760048036038101906104629190611d56565b611b9c565b6040516104749190611d3b565b60405180910390f35b610485611bc1565b6040516104929190611d3b565b60405180910390f35b600260008473ffffffffffffffffffffffffffffffffffffffff1673ffffffffffffffffffffffffffffffffffffffff16815260200190815260200160002060009054906101000a900460ff16610527576040517f08c379a000000000000000000000000000000000000000000000000000000000815260040161051e90611f60565b60405180910390fd5b6000821161056a576040517f08c379a000000000000000000000000000000000000000000000000000000000815260040161056190611fcc565b60405180910390fd5b60038114806105795750600681145b806105845750600c81145b6105c3576040517f08c379a00000000000000000000000000000000000000000000000000000000081526004016105ba90612038565b60405180910390fd5b600062278d00826105d49190612087565b905060006105e23386610dde565b905080600460003373ffffffffffffffffffffffffffffffffffffffff1673ffffffffffffffffffffffffffffffffffffffff16815260200190815260200160002060008773ffffffffffffffffffffffffffffffffffffffff1673ffffffffffffffffffffffffffffffffffffffff168152602001908152602001600020600082825461067091906120c9565b9250508190555083600360003373ffffffffffffffffffffffffffffffffffffffff1673ffffffffffffffffffffffffffffffffffffffff16815260200190815260200160002060008773ffffffffffffffffffffffffffffffffffffffff1673ffffffffffffffffffffffffffffffffffffffff168152602001908152602001600020600082825461070391906120c9565b9250508190555042600660003373ffffffffffffffffffffffffffffffffffffffff1673ffffffffffffffffffffffffffffffffffffffff16815260200190815260200160002060008773ffffffffffffffffffffffffffffffffffffffff1673ffffffffffffffffffffffffffffffffffffffff1681526020019081526020016000208190555081600760003373ffffffffffffffffffffffffffffffffffffffff1673ffffffffffffffffffffffffffffffffffffffff16815260200190815260200160002060008773ffffffffffffffffffffffffffffffffffffffff1673ffffffffffffffffffffffffffffffffffffffff1681526020019081526020016000208190555042600560003373ffffffffffffffffffffffffffffffffffffffff1673ffffffffffffffffffffffffffffffffffffffff16815260200190815260200160002060008773ffffffffffffffffffffffffffffffffffffffff1673ffffffffffffffffffffffffffffffffffffffff168152602001908152602001600020819055508473ffffffffffffffffffffffffffffffffffffffff163373ffffffffffffffffffffffffffffffffffffffff167f6c86f3fd5118b3aa8bb4f389a617046de0a3d3d477de1a1673d227f802f616dc86856040516108ec9291906120fd565b60405180910390a360008573ffffffffffffffffffffffffffffffffffffffff166323b872dd3330886040518463ffffffff1660e01b815260040161093393929190612126565b6020604051808303816000875af1158015610952573d6000803e3d6000fd5b505050506040513d601f19601f820116820180604052508101906109769190612189565b9050600160009054906101000a900473ffffffffffffffffffffffffffffffffffffffff1673ffffffffffffffffffffffffffffffffffffffff166340c10f1933670de0b6b3a7640000886109cb91906121e5565b6040518363ffffffff1660e01b81526004016109e8929190612216565b600060405180830381600087803b158015610a0257600080fd5b505af1158015610a16573d6000803e3d6000fd5b5050505080610a5a576040517f08c379a0000000000000000000000000000000000000000000000000000000008152600401610a519061228b565b60405180910390fd5b505050505050565b600160009054906101000a900473ffffffffffffffffffffffffffffffffffffffff1681565b600a81565b6000806000600360008673ffffffffffffffffffffffffffffffffffffffff1673ffffffffffffffffffffffffffffffffffffffff16815260200190815260200160002060008573ffffffffffffffffffffffffffffffffffffffff1673ffffffffffffffffffffffffffffffffffffffff16815260200190815260200160002054600660008773ffffffffffffffffffffffffffffffffffffffff1673ffffffffffffffffffffffffffffffffffffffff16815260200190815260200160002060008673ffffffffffffffffffffffffffffffffffffffff1673ffffffffffffffffffffffffffffffffffffffff16815260200190815260200160002054600760008873ffffffffffffffffffffffffffffffffffffffff1673ffffffffffffffffffffffffffffffffffffffff16815260200190815260200160002060008773ffffffffffffffffffffffffffffffffffffffff1673ffffffffffffffffffffffffffffffffffffffff168152602001908152602001600020549250925092509250925092565b60026020528060005260406000206000915054906101000a900460ff1681565b62278d0081565b601481565b6006602052816000526040600020602052806000526040600020600091509150505481565b6301e1338081565b60008054906101000a900473ffffffffffffffffffffffffffffffffffffffff1681565b600260008273ffffffffffffffffffffffffffffffffffffffff1673ffffffffffffffffffffffffffffffffffffffff16815260200190815260200160002060009054906101000a900460ff1615610d20576040517f08c379a0000000000000000000000000000000000000000000000000000000008152600401610d17906122f7565b60405180910390fd5b6001600260008373ffffffffffffffffffffffffffffffffffffffff1673ffffffffffffffffffffffffffffffffffffffff16815260200190815260200160002060006101000a81548160ff0219169083151502179055506008819080600181540180825580915050600190039060005260206000200160009091909190916101000a81548173ffffffffffffffffffffffffffffffffffffffff021916908373ffffffffffffffffffffffffffffffffffffffff16021790555050565b600080600560008573ffffffffffffffffffffffffffffffffffffffff1673ffffffffffffffffffffffffffffffffffffffff16815260200190815260200160002060008473ffffffffffffffffffffffffffffffffffffffff1673ffffffffffffffffffffffffffffffffffffffff1681526020019081526020016000205442610e699190612317565b90506000600760008673ffffffffffffffffffffffffffffffffffffffff1673ffffffffffffffffffffffffffffffffffffffff16815260200190815260200160002060008573ffffffffffffffffffffffffffffffffffffffff1673ffffffffffffffffffffffffffffffffffffffff168152602001908152602001600020549050600062278d006003610efe9190612087565b8203610f0d5760059050610f52565b62278d006006610f1d9190612087565b8203610f2c57600a9050610f51565b62278d00600c610f3c9190612087565b8203610f4b5760149050610f50565b600090505b5b5b6000603c60646301e13380670de0b6b3a764000085610f719190612087565b610f7b91906121e5565b610f8591906121e5565b610f8f91906121e5565b90506000603c85610fa091906121e5565b9050670de0b6b3a76400008183600360008c73ffffffffffffffffffffffffffffffffffffffff1673ffffffffffffffffffffffffffffffffffffffff16815260200190815260200160002060008b73ffffffffffffffffffffffffffffffffffffffff1673ffffffffffffffffffffffffffffffffffffffff168152602001908152602001600020546110349190612087565b61103e9190612087565b61104891906121e5565b9550505050505092915050565b6003602052816000526040600020602052806000526040600020600091509150505481565b6005602052816000526040600020602052806000526040600020600091509150505481565b6007602052816000526040600020602052806000526040600020600091509150505481565b600260008273ffffffffffffffffffffffffffffffffffffffff1673ffffffffffffffffffffffffffffffffffffffff16815260200190815260200160002060009054906101000a900460ff16611150576040517f08c379a000000000000000000000000000000000000000000000000000000000815260040161114790611f60565b60405180910390fd5b600061115c3383610dde565b9050600081116111a1576040517f08c379a000000000000000000000000000000000000000000000000000000000815260040161119890612397565b60405180910390fd5b6000600460003373ffffffffffffffffffffffffffffffffffffffff1673ffffffffffffffffffffffffffffffffffffffff16815260200190815260200160002060008473ffffffffffffffffffffffffffffffffffffffff1673ffffffffffffffffffffffffffffffffffffffff1681526020019081526020016000208190555042600560003373ffffffffffffffffffffffffffffffffffffffff1673ffffffffffffffffffffffffffffffffffffffff16815260200190815260200160002060008473ffffffffffffffffffffffffffffffffffffffff1673ffffffffffffffffffffffffffffffffffffffff168152602001908152602001600020819055508173ffffffffffffffffffffffffffffffffffffffff163373ffffffffffffffffffffffffffffffffffffffff167f9310ccfcb8de723f578a9e4282ea9f521f05ae40dc08f3068dfad528a65ee3c7836040516113019190611d3b565b60405180910390a360008060009054906101000a900473ffffffffffffffffffffffffffffffffffffffff1673ffffffffffffffffffffffffffffffffffffffff1663a9059cbb33846040518363ffffffff1660e01b8152600401611367929190612216565b6020604051808303816000875af1158015611386573d6000803e3d6000fd5b505050506040513d601f19601f820116820180604052508101906113aa9190612189565b9050806113ec576040517f08c379a00000000000000000000000000000000000000000000000000000000081526004016113e39061228b565b60405180910390fd5b505050565b600260008373ffffffffffffffffffffffffffffffffffffffff1673ffffffffffffffffffffffffffffffffffffffff16815260200190815260200160002060009054906101000a900460ff1661147d576040517f08c379a000000000000000000000000000000000000000000000000000000000815260040161147490611f60565b60405180910390fd5b600081116114c0576040517f08c379a00000000000000000000000000000000000000000000000000000000081526004016114b790611fcc565b60405180910390fd5b80600360003373ffffffffffffffffffffffffffffffffffffffff1673ffffffffffffffffffffffffffffffffffffffff16815260200190815260200160002060008473ffffffffffffffffffffffffffffffffffffffff1673ffffffffffffffffffffffffffffffffffffffff16815260200190815260200160002054101561157f576040517f08c379a000000000000000000000000000000000000000000000000000000000815260040161157690612403565b60405180910390fd5b600061158b3384610dde565b90506000600460003373ffffffffffffffffffffffffffffffffffffffff1673ffffffffffffffffffffffffffffffffffffffff16815260200190815260200160002060008573ffffffffffffffffffffffffffffffffffffffff1673ffffffffffffffffffffffffffffffffffffffff1681526020019081526020016000208190555042600560003373ffffffffffffffffffffffffffffffffffffffff1673ffffffffffffffffffffffffffffffffffffffff16815260200190815260200160002060008573ffffffffffffffffffffffffffffffffffffffff1673ffffffffffffffffffffffffffffffffffffffff168152602001908152602001600020819055508273ffffffffffffffffffffffffffffffffffffffff163373ffffffffffffffffffffffffffffffffffffffff167f9310ccfcb8de723f578a9e4282ea9f521f05ae40dc08f3068dfad528a65ee3c7836040516116ed9190611d3b565b60405180910390a360008060009054906101000a900473ffffffffffffffffffffffffffffffffffffffff1673ffffffffffffffffffffffffffffffffffffffff1663a9059cbb33846040518363ffffffff1660e01b8152600401611753929190612216565b6020604051808303816000875af1158015611772573d6000803e3d6000fd5b505050506040513d601f19601f820116820180604052508101906117969190612189565b9050806117d8576040517f08c379a00000000000000000000000000000000000000000000000000000000081526004016117cf9061228b565b60405180910390fd5b82600360003373ffffffffffffffffffffffffffffffffffffffff1673ffffffffffffffffffffffffffffffffffffffff16815260200190815260200160002060008673ffffffffffffffffffffffffffffffffffffffff1673ffffffffffffffffffffffffffffffffffffffff16815260200190815260200160002060008282546118649190612317565b92505081905550600160009054906101000a900473ffffffffffffffffffffffffffffffffffffffff1673ffffffffffffffffffffffffffffffffffffffff1663c777896633670de0b6b3a7640000866118be91906121e5565b6040518363ffffffff1660e01b81526004016118db929190612216565b600060405180830381600087803b1580156118f557600080fd5b505af1158015611909573d6000803e3d6000fd5b505050508373ffffffffffffffffffffffffffffffffffffffff163373ffffffffffffffffffffffffffffffffffffffff167fd8654fcc8cf5b36d30b3f5e4688fc78118e6d68de60b9994e09902268b57c3e38560405161196a9190611d3b565b60405180910390a360008473ffffffffffffffffffffffffffffffffffffffff1663a9059cbb33866040518363ffffffff1660e01b81526004016119af929190612216565b6020604051808303816000875af11580156119ce573d6000803e3d6000fd5b505050506040513d601f19601f820116820180604052508101906119f29190612189565b905080611a34576040517f08c379a0000000000000000000000000000000000000000000000000000000008152600401611a2b9061228b565b60405180910390fd5b5050505050565b60088181548110611a4b57600080fd5b906000526020600020016000915054906101000a900473ffffffffffffffffffffffffffffffffffffffff1681565b6000611a868383610dde565b600460008573ffffffffffffffffffffffffffffffffffffffff1673ffffffffffffffffffffffffffffffffffffffff16815260200190815260200160002060008473ffffffffffffffffffffffffffffffffffffffff1673ffffffffffffffffffffffffffffffffffffffff16815260200190815260200160002054611b0d91906120c9565b905092915050565b6000600360008473ffffffffffffffffffffffffffffffffffffffff1673ffffffffffffffffffffffffffffffffffffffff16815260200190815260200160002060008373ffffffffffffffffffffffffffffffffffffffff1673ffffffffffffffffffffffffffffffffffffffff16815260200190815260200160002054905092915050565b6004602052816000526040600020602052806000526040600020600091509150505481565b600581565b600080fd5b600073ffffffffffffffffffffffffffffffffffffffff82169050919050565b6000611bf682611bcb565b9050919050565b611c0681611beb565b8114611c1157600080fd5b50565b600081359050611c2381611bfd565b92915050565b6000819050919050565b611c3c81611c29565b8114611c4757600080fd5b50565b600081359050611c5981611c33565b92915050565b600080600060608486031215611c7857611c77611bc6565b5b6000611c8686828701611c14565b9350506020611c9786828701611c4a565b9250506040611ca886828701611c4a565b9150509250925092565b6000819050919050565b6000611cd7611cd2611ccd84611bcb565b611cb2565b611bcb565b9050919050565b6000611ce982611cbc565b9050919050565b6000611cfb82611cde565b9050919050565b611d0b81611cf0565b82525050565b6000602082019050611d266000830184611d02565b92915050565b611d3581611c29565b82525050565b6000602082019050611d506000830184611d2c565b92915050565b60008060408385031215611d6d57611d6c611bc6565b5b6000611d7b85828601611c14565b9250506020611d8c85828601611c14565b9150509250929050565b6000606082019050611dab6000830186611d2c565b611db86020830185611d2c565b611dc56040830184611d2c565b949350505050565b600060208284031215611de357611de2611bc6565b5b6000611df184828501611c14565b91505092915050565b60008115159050919050565b611e0f81611dfa565b82525050565b6000602082019050611e2a6000830184611e06565b92915050565b6000611e3b82611cde565b9050919050565b611e4b81611e30565b82525050565b6000602082019050611e666000830184611e42565b92915050565b60008060408385031215611e8357611e82611bc6565b5b6000611e9185828601611c14565b9250506020611ea285828601611c4a565b9150509250929050565b600060208284031215611ec257611ec1611bc6565b5b6000611ed084828501611c4a565b91505092915050565b611ee281611beb565b82525050565b6000602082019050611efd6000830184611ed9565b92915050565b600082825260208201905092915050565b7f556e737570706f7274656420746f6b656e000000000000000000000000000000600082015250565b6000611f4a601183611f03565b9150611f5582611f14565b602082019050919050565b60006020820190508181036000830152611f7981611f3d565b9050919050565b7f416d6f756e74206d7573742062652067726561746572207468616e207a65726f600082015250565b6000611fb6602083611f03565b9150611fc182611f80565b602082019050919050565b60006020820190508181036000830152611fe581611fa9565b9050919050565b7f496e76616c6964207374616b696e67206475726174696f6e0000000000000000600082015250565b6000612022601883611f03565b915061202d82611fec565b602082019050919050565b6000602082019050818103600083015261205181612015565b9050919050565b7f4e487b7100000000000000000000000000000000000000000000000000000000600052601160045260246000fd5b600061209282611c29565b915061209d83611c29565b92508282026120ab81611c29565b915082820484148315176120c2576120c1612058565b5b5092915050565b60006120d482611c29565b91506120df83611c29565b92508282019050808211156120f7576120f6612058565b5b92915050565b60006040820190506121126000830185611d2c565b61211f6020830184611d2c565b9392505050565b600060608201905061213b6000830186611ed9565b6121486020830185611ed9565b6121556040830184611d2c565b949350505050565b61216681611dfa565b811461217157600080fd5b50565b6000815190506121838161215d565b92915050565b60006020828403121561219f5761219e611bc6565b5b60006121ad84828501612174565b91505092915050565b7f4e487b7100000000000000000000000000000000000000000000000000000000600052601260045260246000fd5b60006121f082611c29565b91506121fb83611c29565b92508261220b5761220a6121b6565b5b828204905092915050565b600060408201905061222b6000830185611ed9565b6122386020830184611d2c565b9392505050565b7f5472616e73666572204661696c65640000000000000000000000000000000000600082015250565b6000612275600f83611f03565b91506122808261223f565b602082019050919050565b600060208201905081810360008301526122a481612268565b9050919050565b7f546f6b656e20616c726561647920737570706f72746564000000000000000000600082015250565b60006122e1601783611f03565b91506122ec826122ab565b602082019050919050565b60006020820190508181036000830152612310816122d4565b9050919050565b600061232282611c29565b915061232d83611c29565b925082820390508181111561234557612344612058565b5b92915050565b7f4e6f207265776172647320746f20636c61696d00000000000000000000000000600082015250565b6000612381601383611f03565b915061238c8261234b565b602082019050919050565b600060208201905081810360008301526123b081612374565b9050919050565b7f5374616b656420616d6f756e74206e6f7420656e6f7567680000000000000000600082015250565b60006123ed601883611f03565b91506123f8826123b7565b602082019050919050565b6000602082019050818103600083015261241c816123e0565b905091905056fea2646970667358221220f7c28096c42026f318942d7b95042797484924f2c8a6f4bf84f51b21770a93b964736f6c63430008180033",
  "linkReferences": {},
  "deployedLinkReferences": {}
}